:020000040800F2
:1000000000000120152200081D1E0008291E0008FE
:100010002F1E0008351E00083B1E000800000000CF
:10002000000000000000000000000000411E000869
:100030004D1E000800000000591E0008651E000843
:1000400059220008592200085922000859220008A4
:100050005922000859220008592200085922000894
:100060005922000859220008592200085922000884
:100070005922000859220008592200085922000874
:100080005922000859220008592200085922000864
:10009000711E000859220008592200085922000840
:1000A0005922000859220008592200085922000844
:1000B00059220008851E000859220008592200080C
:1000C0005922000859220008592200085922000824
:1000D0005922000859220008592200085922000814
:1000E0005922000859220008592200080000000087
:1000F0000000000000000000000000000000000000
:1001000000000000000000005922000859220008E9
:1001100059220008592200085922000859220008D3
:1001200059220008592200085922000859220008C3
:1001300059220008000000000000000059220008B9
:1001400059220008592200085922000859220008A3
:10015000000000000000000000000000000000009F
:10016000000000000000000000000000000000008F
:10017000000000000000000000000000000000007F
:10018000000000000000000000000000000000006F
:10019000000000000000000000000000000000005F
:1001A000000000000000000000000000000000004F
:1001B000000000000000000000000000000000003F
:1001C000000000000000000000000000000000002F
:1001D000000000000000000000000000000000001F
:0401E0005FF8E0F1F3
:1001E40010B5054C237833B9044B13B10448AFF36D
:1001F40000800123237010BD0802002000000000CD
:100204004869000808B5034B1BB103490348AFF321
:10021400008008BD000000000C02002048690008AE
:10022400034613F8012B002AFBD1181A0138704732
:1002340053B94AB9002908BF00281CBF4FF0FF3149
:100244004FF0FF3000F074B9ADF1080C6DE904CE45
:1002540000F006F8DDF804E0DDE9022304B070479D
:100264002DE9F0478C460446089E002B4BD18A4268
:10027400154667D9B2FA82F24AB1C2F1200701FAEF
:1002840002F320FA07F7954047EA030C94404FEA3B
:10029400154EBCFBFEF71FFA85F80EFB17C307FBD0
:1002A40008F9210C41EA0343994509D9EB1807F1F0
:1002B400FF3180F01C81994540F21981023F2B44A3
:1002C400A3EB0903B3FBFEF00EFB103300FB08F1B4
:1002D400A4B244EA0344A14209D92C1900F1FF3322
:1002E40080F00781A14240F2048102382C4440EAA4
:1002F40007400027641A1EB10023D440C6E9004316
:100304003946BDE8F0878B4209D9002E00F0EC8015
:100314000027C6E9000138463946BDE8F087B3FA3C
:1003240083F7002F48D18B4202D3824200F2FB8034
:10033400841A61EB030301209C46002EE0D0C6E939
:10034400004CDDE702B9FFDEB2FA82F2002A40F087
:100354008F800127491B4FEA15481FFA85F9B1FB25
:10036400F8FE08FB1E1109FB0EF04FEA144C4CEA90
:100374000143984207D9EB180EF1FF3102D298429B
:1003840000F2CD808E461B1AB3FBF8F008FB103345
:1003940009FB00F9A4B244EA0344A14507D92C1986
:1003A40000F1FF3302D2A14500F2B6801846A4EB57
:1003B400090440EA0E409EE7C7F12005BB4022FA3B
:1003C40005FC4CEA030C21FA05F44FEA1C4EB4FB7D
:1003D400FEF91FFA8CF80EFB194420FA05F3B94014
:1003E40009FB08FA19430B0C43EA0444A24502FA38
:1003F40007F200FA07F30BD91CEB040409F1FF30F0
:1004040080F08880A24540F28580A9F10209644405
:10041400A4EB0A04B4FBFEF00EFB104400FB08FA44
:1004240089B241EA0444A24508D91CEB040400F152
:10043400FF316BD2A24569D90238644440EA0940CD
:10044400A0FB0289A4EB0A044C454146CE4654D392
:1004540051D0002E69D05A1A64EB0E0404FA05F543
:1004640022FA07F3FC401D43C6E90054002747E77E
:100474009540C2F1200321FA03F04FEA1548B0FB7E
:10048400F8F71FFA85F908FB170024FA03F39140E3
:1004940007FB09FC0B43190C41EA00418C4504FAA3
:1004A40002F407D9691807F1FF3031D28C452FD9EE
:1004B400023F2944A1EB0C01B1FBF8F008FB101C2E
:1004C40000FB09FE99B241EA0C418E4507D969182F
:1004D40000F1FF3318D28E4516D902382944A1EB16
:1004E4000E0140EA07473AE73746304608E70F4629
:1004F400E6E61846FBE64345ABD2B8EB020169EBEE
:100504000C0201389646A4E71846E8E7084695E742
:100514000746CFE781467BE702382C4447E7AEF134
:10052400020E2B442FE7384607E73746E8E600BFBC
:10053400704700BF80B500AF174B184A1A60164BBE
:1005440009225A60144B00229A60134B0022DA608D
:10055400114B4FF4A0221A610F4B00225A610E4B2B
:1005640000221A760C4B00225A760B4B00229A7604
:10057400094B0022DA76084B00221A77064B002238
:100584005A77054801F0ECFE0346002B01D001F038
:1005940007FC00BF80BD00BF600200200064004073
:1005A40080B500AF174B184A1A60164B09225A60DF
:1005B400144B00229A60134B0022DA60114B4FF463
:1005C400A0221A610F4B00225A610E4B00221A76A8
:1005D4000C4B00225A760B4B00229A76094B0022D0
:1005E400DA76084B00221A77064B00225A77054820
:1005F40001F0B6FE0346002B01D001F0D1FB00BF91
:1006040080BD00BF380200200068004080B58CB077
:1006140000AF786007F1200300221A605A609A60E4
:10062400DA607B681B684B4A934243D14A4B1B6890
:100634000133494A1360484B1B68012B0BD1474BCC
:10064400DB69464A43F00073D361444BDB6903F032
:100654000073FB61FB69414B9B69404A43F004030F
:1006640093613E4B9B6903F00403BB61BB694FF488
:1006740000633B6200237B620023BB6207F120031B
:100684001946374802F0ECFF4FF480533B620223D3
:100694007B620323FB6207F120031946304802F012
:1006A400DFFF00220021142002F0A3FD142002F039
:1006B400BCFD4BE07B681B682A4A934246D1274B1A
:1006C400DB69264A43F08063D361244BDB6903F082
:1006D40080637B617B69204B1B6801331E4A136076
:1006E4001D4B1B68012B0BD11C4BDB691B4A43F0D0
:1006F4000073D361194BDB6903F000733B613B6901
:10070400164B9B69154A43F008039361134B9B698D
:1007140003F00803FB60FB684FF480533B62002343
:100724007B620023BB6207F1200319460E4802F0E6
:1007340097FF4FF400533B6202237B620323FB6267
:1007440007F120031946084802F08AFF00BF30373A
:10075400BD4680BD00640040240200200010024019
:100764000008014000680040000C014080B58AB0D8
:1007740000AF06237B8406233B840023FB840023F1
:10078400FB830023BB834FF6FF73BB8400237B6191
:100794009E4B1B887B849E4B1B883B8400237B6081
:1007A4009A4BFB6001233B617B8C4EF6EE629342D5
:1007B40057D04FF6FF72934203D0002B00F0F48021
:1007C4008DE13B8C002B16D1904800F0A9F903462B
:1007D400002B40F08E8107F114023B1D1146184690
:1007E40002F096FE0346FB76FB7E002B00F081812F
:1007F400FB7E9BB285E13B8C4EF6EE62934225D1A3
:10080400824800F08DF90346002B0ED107F1140243
:100814003B1D1146184602F07BFE0346FB76FB7E29
:10082400002B02D0FB7E9BB26BE14FF000024FF035
:1008340000037749012002F013FD0346FB76FB7E9B
:10084400002B00F05681FB7E9BB25AE100F0FAF9CE
:100854000346FB76FB7E002B00F04B81FB7E9BB2B4
:100864004FE13B8C002B63D10023FB8430E0694BC8
:100874001B889AB2FB8C684931F813309A4201D133
:10088400FB8CBB84FA8CB7F924309A421DD0FB8CC4
:10089400614A32F813306149184600F067F903469B
:1008A400BB83BB8B012B10D0FB8C5B4A32F813202B
:1008B4005A4B1B881946104600F058FA0346FB832E
:1008C400FB8B002B01D0FB8B1BE1FB8C0133FB84E6
:1008D400FB8C022BCBD94FF000024FF000034B49A5
:1008E400012002F0BDFC0346FB76FB7E002B02D008
:1008F400FB7E9BB205E100237B60454BFB6001233B
:100904003B61434800F00CF90346002B40F0F380B0
:1009140007F114023B1D1146184602F0F9FD034687
:10092400FB76FB7E002B00F0E680FB7E9BB2E8E0CA
:100934003B8C4FF6FF7293422BD100237B60344BE8
:10094400FB6001233B61324800F0EAF80346002BC8
:100954000ED107F114023B1D1146184602F0D8FDD2
:100964000346FB76FB7E002B02D0FB7E9BB2C8E0E5
:100974004FF000024FF000032449012002F070FC04
:100984000346FB76FB7E002B00F0B580FB7E9BB21A
:10099400B7E000F057F90346FB76FB7E002B00F02E
:1009A400AA80FB7E9BB2ACE03B8C002B0AD100F00A
:1009B40049F90346FB76FB7E002B00F09E80FB7E0C
:1009C4009BB29EE03B8C4FF6FF7293421BD10023F7
:1009D4007B600F4BFB6001233B610D4800F0A0F8E6
:1009E4000346002B40F0898007F114023B1D114699
:1009F400184602F08DFD0346FB76FB7E002B7CD06F
:100A0400FB7E9BB27DE00023FB843AE0008000087B
:100A14000080010806800008000000202802002051
:100A24003A4B1B889AB2FB8C394931F813309A42FD
:100A340001D1FB8CBB84FA8CB7F924309A421DD0C7
:100A4400FB8C334A32F813303249184600F08EF8E2
:100A54000346BB83BB8B012B10D0FB8C2C4A32F892
:100A640013202C4B1B881946104600F07FF90346CF
:100A7400FB83FB8B002B01D0FB8B42E0FB8C01330F
:100A8400FB84FB8C022BCBD94FF000024FF0000308
:100A94002149012002F0E4FB0346FB76FB7E002B98
:100AA40002D0FB7E9BB22CE000237B601B4BFB60DF
:100AB40001233B61194800F033F80346002B1CD195
:100AC40007F114023B1D1146184602F021FD0346AE
:100AD400FB76FB7E002B10D0FB7E9BB211E000F076
:100AE400B1F80346FB76FB7E002B08D0FB7E9BB25D
:100AF40007E000BF04E000BF02E000BF00E000BF69
:100B0400002318462837BD4680BD00BF0680010873
:100B14000000002028020020008001080080000856
:100B240080B485B000AF78600123FB6045F2555373
:100B34007B810DE07B681B887B817B894FF6FF728C
:100B4400934202D00023FB6006E07B6804337B60A1
:100B54007B68054A9342EDD9FB689BB2184614376B
:100B6400BD4680BC704700BFFF87000880B586B0D3
:100B740000AF03463960FB800023FB8145F25553E7
:100B8400BB810123FB821C4B3B611B4BBB600020E0
:100B940000F0A8F80346FB81FB89AB2B01D1AB2302
:100BA40025E0FB8903F580331033DB02BB60FB894E
:100BB4000133DA02114B13443B6112E03B691B8899
:100BC400BB81BA89FB889A4208D13B69023B1B88E6
:100BD4009AB23B681A800023FB8207E03B69043B1E
:100BE4003B61BB6802333A699A42E7D8FB8A1846EC
:100BF4001837BD4680BD00BF00800008FE7F000896
:100C040080B584B000AF03460A46FB801346BB8020
:100C14000023FB81BA88FB881146184600F0A6F829
:100C24000346FB81FB89802B07D1BA88FB881146D8
:100C3400184600F0F9F80346FB81FB891846103783
:100C4400BD4680BD80B586B000AF0023FB75002390
:100C54003B6100233B60214BBB600123FB601F48C9
:100C6400FFF75EFF0346002B0DD107F110023B4650
:100C74001146184602F04CFC0346FB75FB7D002B25
:100C840001D0FB7D25E04FF000024FF00003134933
:100C9400012002F0E5FA0346FB75FB7D002B01D031
:100CA400FB7D16E00E4BBB600D48FFF739FF034692
:100CB400002B0DD107F110023B461146184602F0F5
:100CC40027FC0346FB75FB7D002B01D0FB7D00E078
:100CD400002318461837BD4680BD00BF00800008B9
:100CE4000080010880B485B000AF0346FB71062381
:100CF400FB810623BB811B4B1B88FB811A4B1B8882
:100D0400BB81FB79002B1BD0012B25D1BB89002B88
:100D140008D1FB894EF6EE62934201D100231CE018
:100D240040231AE0FB89002B08D1BB894EF6EE6202
:100D3400934201D1402310E000230EE0AB230CE0EA
:100D4400FB89002B01D1002307E0BB89002B01D1D3
:100D5400402302E0AB2300E0002318461437BD46CD
:100D640080BC7047008000080080010890B587B0FF
:100D740000AF03460A46FB801346BB800023FB7486
:100D840000233B82254B7B61254BFB600120FFF751
:100D9400A9FF03463B823B8AAB2B01D1AB2339E04D
:100DA4003B8A03F580331033DB027B613B8A0133DA
:100DB400DA021C4B1344FB6027E07B691B68B3F128
:100DC400FF3F1FD1BB884FF000041A4623467969C0
:100DD400012002F045FA0346FB74FB7C002B02D091
:100DE400FB7C9BB216E07B69991CFB884FF00004E6
:100DF4001A462346012002F033FA0346FB74FB7CB7
:100E04009BB207E07B6904337B617A69FB689A4291
:100E1400D3D3802318461C37BD4690BD00800008FC
:100E240000880008FF7F000880B58CB000AF03463F
:100E34000A46FB801346BB80002387F82530534BBA
:100E4400FB620023BB6200237B840023FB8400231A
:100E54003B840023FB830023BB610020FFF742FF98
:100E640003467B847B8C402B04D1484BFB62484B6C
:100E7400BB6209E07B8C002B04D1454BFB62434BE6
:100E8400BB6201E0AB237CE04EF6EE624FF0000360
:100E9400F96A012002F0E4F9034687F8253097F84F
:100EA4002530002B03D097F825309BB269E0BA882F
:100EB400FB8811461846FFF759FF03463B843B8CD9
:100EC400002B01D03B8C5CE00023FB8427E0FB8CEF
:100ED400304A32F81330FA889A421DD0FB8C2D4ADE
:100EE40032F813302C491846FFF740FE0346FB83C3
:100EF400FB8B012B10D0FB8C264A32F81320264B97
:100F04001B8819461046FFF731FF03463B843B8C90
:100F1400002B01D03B8C34E0FB8C0133FB84FB8C35
:100F2400022BD4D90023BB60BB6A3B6101237B61E4
:100F340007F1180207F108031146184602F0E8FA0F
:100F4400034687F8253097F82530002B03D097F80F
:100F540025309BB215E04FF000024FF00003F96A10
:100F6400012002F07DF9034687F8253097F82530F3
:100F7400002B03D097F825309BB202E097F8253078
:100F84009BB218463037BD4680BD00BF00800008C4
:100F940000800108000000202802002080B588B0ED
:100FA40000AF07F1100300221A605A609A60DA60F9
:100FB4001D4B9B691C4A43F0200393611A4B9B69A8
:100FC40003F02003FB60FB68174B9B69164A43F050
:100FD40008039361144B9B6903F00803BB60BB686F
:100FE400114B9B69104A43F0040393610E4B9B69B8
:100FF40003F004037B607B68002203210B4802F0AA
:1010040089FC03233B6101237B610023BB61022331
:10101400FB6107F110031946044802F021FB00BFED
:101024002037BD4680BD00BF00100240000C0140C7
:1010340080B500AF01F010F900F05AF8FFF7AEFFE9
:10104400FFF778FAFFF7ACFA00F0F8FF01F06AF85E
:101054001C4804F07FF8FFF789FB1B4800F05CFA9A
:101064001A4800F093F80346002B03D0184804F004
:1010740071F802E0174804F06DF8174800F086F89C
:101084000346002B03D0154804F064F802E014482A
:1010940004F060F8134803F0CCF900F079F9124831
:1010A40000F0FEFA0346002BF9D0012301220F4978
:1010B4000D4803F003FE0D4B1B78184600F006FBA9
:1010C400EDE700BF60690008B40200206002002060
:1010D40078690008A469000838020020C86900087B
:1010E400F46900082003002060030020E4020020CB
:1010F40080B594B000AF07F11803382200211846D8
:1011040003F0ACFF3B1D00221A605A609A60DA605B
:101114001A610123BB614FF480333B6200237B627D
:101124000123FB620023FB610223BB634FF4803382
:10113400FB634FF4E0133B6400237B6407F1180363
:10114400184602F017FC0346002B01D000F028FEDD
:101154000F237B600223BB600023FB604FF480639A
:101164003B6100237B613B1D0221184602F018FFFE
:101174000346002B01D000F013FE034B01221A603A
:1011840000BF5037BD4680BD7000424280B58CB070
:1011940000AF78600023FB6100233B6201237B6284
:1011A4000023BB600023FB6000233B6100237B61C1
:1011B4000023BB610123BB620E23FB6207F108031A
:1011C4001946786801F0C8F90346002B01D00023C2
:1011D40014E0022001F0A2F8786801F09DFA0346B9
:1011E400002B01D0002309E0064B0022DA60054BF6
:1011F40000229A60034B00221A75012318463037E7
:10120400BD4680BD0803002080B582B000AF786081
:101214000B46FB70786801F0C3FAFB78313B052B71
:1012240000F2978001A252F823F000BF491200088F
:1012340075120008A1120008CF120008FD12000860
:10124400291300087B6804225A607B684FF4C0228B
:101254001A617B6800225A61786801F081F80346BC
:10126400002B01D0002380E0424803F073FF73E0B9
:101274007B6809225A607B684FF4A0221A617B685C
:1012840000225A61786801F06BF80346002B01D004
:1012940000236AE0384803F05DFF5DE07B680922C3
:1012A4005A607B684FF440221A617B684FF48012C5
:1012B4005A61786801F054F80346002B01D00023EA
:1012C40053E02E4803F046FF46E07B680F225A6045
:1012D4007B684FF440221A617B684FF480125A6194
:1012E400786801F03DF80346002B01D000233CE070
:1012F400234803F02FFF2FE07B682D225A607B6880
:101304004FF4A0221A617B6800225A61786801F0C8
:1013140027F80346002B01D0002326E0194803F0E8
:1013240019FF19E07B682D225A607B684FF4402234
:101334001A617B684FF480125A61786801F010F8E2
:101344000346002B01D000230FE00F4803F002FFF7
:1013540002E00E4803F0FEFE786801F0DDF9034672
:10136400002B01D0002300E0012318460837BD46B6
:1013740080BD00BF186A0008386A0008586A00086F
:10138400786A0008986A0008B86A0008D86A0008F1
:1013940080B500AF124803F0DDFE124803F0DAFE18
:1013A400114803F0D7FE114803F0D4FE104803F0AF
:1013B400D1FE104803F0CEFE0F4803F0CBFE0F48D9
:1013C40003F0C8FE0E4803F0C5FE0E4803F0C2FE4B
:1013D4000D4803F0BFFE0D4803F0BCFE00BF80BD06
:1013E400E86A0008246B00083C6B0008546B000892
:1013F400686B00087C6B0008946B0008B86B0008ED
:10140400DC6B0008FC6B0008146C0008386C0008E6
:1014140080B500AF0B4803F09DFE0B4803F09AFE25
:101424000A4803F097FE0A4803F094FE094803F0C3
:1014340091FE094803F08EFE084803F08BFE00BFBE
:1014440080BD00BF486C0008686C0008786C000818
:10145400906C0008A06C0008B06C0008C06C000818
:1014640080B582B000AF01237B60114803F072FEA7
:1014740000233B6014E00F4A3B6832F81330002B22
:101484000BD00C4A3B6832F813301A4679680A4884
:1014940003F0ECFD7B6801337B603B6801333B6008
:1014A4003B68092BE7DD00BF0837BD4680BD00BFA0
:1014B400D06C0008B4020020DC6C000880B582B057
:1014C40000AF7860391D4FF6FF730122034803F023
:1014D4005CFB7B6818460837BD4680BD600300206E
:1014E40080B582B000AF78607B681B68044A934281
:1014F40001D100F007F800BF0837BD4680BD00BF2A
:101504000004004080B500AF0121024802F01AFA3D
:1015140000BF80BD000C014080B582B000AF786090
:1015240001F00EFF294B1B8879681846FFF71EFB54
:10153400264B5A887B68023319461046FFF716FB80
:10154400224B9A887B68043319461046FFF70EFB3A
:101554001E4BDA887B68063319461046FFF706FBF4
:101564001A4B1A897B68083319461046FFF7FEFAAE
:10157400164B5A897B680A3319461046FFF7F6FA68
:10158400124B9A897B680C3319461046FFF7EEFA22
:101594000E4BDA897B680E3319461046FFF7E6FADC
:1015A4000A4B1A8A7B68103319461046FFF7DEFA95
:1015B400064B5A8A7B68123319461046FFF7D6FA4F
:1015C40001F0E4FE00BF0837BD4680BD00000020E6
:1015D40080B582B000AF786001F0B2FE2F4B1A885C
:1015E4007B681B8819461046FFF70AFB2B4B5A8869
:1015F4007B6802331B8819461046FFF701FB274B13
:101604009A887B6804331B8819461046FFF7F8FA5A
:10161400224BDA887B6806331B8819461046FFF78D
:10162400EFFA1E4B1A897B6808331B88194610464B
:10163400FFF7E6FA194B5A897B680A331B88194667
:101644001046FFF7DDFA154B9A897B680C331B882B
:1016540019461046FFF7D4FA104BDA897B680E332B
:101664001B8819461046FFF7CBFA0C4B1A8A7B6885
:1016740010331B8819461046FFF7C2FA074B5A8AE3
:101684007B6812331B8819461046FFF7B9FA01F03C
:101694007DFE00BF0837BD4680BD00BF00000020AE
:1016A40080B485B000AF78607B681B681B6803F06A
:1016B4002003FB60FB68002B01D0012300E0002322
:1016C40018461437BD4680BC7047000080B592B000
:1016D40000AF0346FB71FB79313B422B00F2BD8125
:1016E40001A252F823F000BFF917000819180008E6
:1016F400391800086B1800089D180008A518000880
:10170400511900085F1A00085F1A00085F1A0008E0
:101714005F1A00085F1A00085F1A00085F1A0008C1
:101724005F1A00085F1A00085F1A00085F1A0008B1
:101734005F1A00085F1A00085F1A00085F1A0008A1
:101744005F1A00085F1A00085F1A00085F1A000891
:101754005F1A00085F1A00085F1A00085F1A000881
:101764005F1A00085F1A00085F1A00085F1A000871
:101774005F1A00085F1A00085F1A00085F1A000861
:101784005F1A00085F1A00085F1A00085F1A000851
:101794005F1A00085F1A00085F1A00085F1A000841
:1017A4005F1A00085F1A00085F1A00085F1A000831
:1017B400FB190008011A00085F1A00085F1A0008E4
:1017C4005F1A00085F1A00085F1A00085F1A000811
:1017D4005F1A00085F1A0008591A00085F1A000807
:1017E4005F1A00085F1A00085F1A00085F1A0008F1
:1017F400251A0008FFF70CFE4FF0FF3301229D4924
:101804009D4803F05BFA9B4B1B7819469B48FFF7F6
:10181400FBFC2BE1FFF7FCFD4FF0FF330122954960
:10182400954803F04BFA934B1B7819469448FFF7FD
:10183400EBFC1BE1934803F08DFC07F138014FF0FA
:10184400FF3305228C4803F039FA07F1300207F11F
:1018540038038D49184603F085FC3B6B9BB2184650
:1018640000F00CFA02E1874803F074FC07F1380138
:101874004FF0FF330522804803F020FA07F13002CD
:1018840007F138038049184603F06CFC3B6B9BB2AC
:10189400184600F049FAE9E07C4803F05BFCE5E017
:1018A4007B4803F057FC07F137014FF0FF33012267
:1018B400714803F003FA97F83730303B87F83F302C
:1018C40097F83F30082B02D9724803F043FC724862
:1018D40003F0CCFB00237B6415E007F10C014FF00F
:1018E400FF330422644803F0E9F907F110027B6C2A
:1018F4009B001A4407F10C036349184603F032FCB9
:101904007B6C01337B6497F83F307A6C9A42E4DB5A
:1019140097F83F30614A1361604B01221A6007F166
:1019240010025F4B5D49554800F083FF0346002BCE
:1019340008D15C4B1B78002B00F093805A4803F0CD
:1019440009FC8EE0594803F005FC8AE0504803F096
:1019540001FC07F137014FF0FF330122464803F041
:10196400ADF997F83730303B87F83F3097F83F3080
:10197400082B02D9474803F0EDFB474803F076FBF8
:1019840000233B6415E007F10C014FF0FF33042200
:10199400394803F093F907F110023B6C9B001A4499
:1019A40007F10C033849184603F0DCFB3B6C0133A8
:1019B4003B6497F83F303A6C9A42E4DB97F83F3047
:1019C4003B4A13613A4B01221A6007F11002394B6A
:1019D40037492B4800F02DFF0346002B07D1314B2C
:1019E4001B78002B3FD0344803F0B4FB3BE02F4876
:1019F40003F0B0FB37E0FFF733FD37E0294B1B78EA
:101A0400002B06D0274B00221A702C4803F0A2FBAF
:101A14002CE0244B01221A70294803F09BFB25E09B
:101A2400284B1B78002B0AD0264B00221A701D4B22
:101A34001B78002B19D0244803F08CFB15E0214BB4
:101A440001221A70174B1B78002B0ED01F4803F08D
:101A540081FB0AE0FFF79CFC08E01D4803F07AFBD9
:101A640004E000BF02E000BF00E000BF00BF483751
:101A7400BD4680BD280000206003002060020020D5
:101A840038020020E86C0008106D0008146D00088E
:101A9400386D0008586D0008706D0008CC020020F5
:101AA400E802002029000020906D0008A86D0008BD
:101AB40008030020C8020020C86D0008E06D00087B
:101AC400F06D00082A020020006E0008106E000865
:101AD400D86A000880B584B000AF78600122022182
:101AE400364801F017FF364800F0A6F8344B354A63
:101AF4000021354800F077FF0346002B55D1334BC6
:101B04001B78002B1BD0324803F024FB2D4B1B68A1
:101B14001946304803F0AAFA0023FB600AE0284A79
:101B2400FB6813441B7819462B4803F09FFAFB68A3
:101B34000133FB60234B1A69FB689A42EFD8274BA9
:101B44001B78002B31D000F057F8034683F00103D3
:101B5400DBB2002B07D01D4B1B78002B25D020486F
:101B640003F0F8FA21E0164800F07DF80346002B54
:101B740006D0164B1B78002B02D01A4803F0EAFA61
:101B8400124B1B78002B02D0174803F0E3FA0D4BDD
:101B94001B69164A13610B4B1B68144A1360144BE0
:101BA400074A1249134800F044FE00220221034868
:101BB40001F0B0FE00BF1037BD4680BD000C0140EF
:101BC400AC020020EC02002060020020290000206A
:101BD400206E0008386E0008586E00082A020020A3
:101BE400606E0008746E0008886E00080803002008
:101BF400C80200203802002080B483B000AF002364
:101C04007B600CE00A4B1B680A497A6831F81220A1
:101C1400934201D1002306E07B6801337B607B683B
:101C2400092BEFDD012318460C37BD4680BC7047F5
:101C3400EC020020B402002080B485B000AF7860CC
:101C44000023FB6007E0FB687A68134400221A70E3
:101C5400FB680133FB60FB68072BF4DD00BF14371E
:101C6400BD4680BC704780B483B000AF7860002369
:101C740018460C37BD4680BC7047000080B584B060
:101C840000AF0346FB800023FB6013E0214AFB689E
:101C940032F81330FA889A4209D11F4B1B78002B73
:101CA40034D0FB8819461D4803F0E0F92EE0FB68A8
:101CB4000133FB60FB68092BE8DD0023BB601AE0FD
:101CC400144ABB6832F81330002B11D11149BB6898
:101CD400FA8821F81320104B1B78002B04D0FB88C2
:101CE40019460F4803F0C2F90A48FFF771FC0EE0E9
:101CF400BB680133BB60BB68092BE1DD064B1B7875
:101D0400002B04D0074803F025FA00E000BF103789
:101D1400BD4680BDB402002029000020A86E000842
:101D2400C46E0008E46E000880B584B000AF0346BA
:101D3400FB800023FB601BE0154AFB6832F813307C
:101D4400FA889A4211D1124AFB68002122F8131032
:101D5400104B1B78002B04D0FB8819460E4803F067
:101D640085F90B48FFF734FC0EE0FB680133FB6098
:101D7400FB68092BE0DD074B1B78002B04D0FB88A4
:101D84001946064803F072F91037BD4680BD00BFFE
:101D9400B402002029000020FC6E0008106F000827
:101DA40080B500AF024803F0D5F900BF80BD00BF85
:101DB400306F000880B485B000AF154B9B69144A9E
:101DC40043F001039361124B9B6903F00103BB6071
:101DD400BB680F4BDB690E4A43F08053D3610C4B55
:101DE400DB6903F080537B607B680A4B5B68FB60B4
:101DF400FB6823F0E063FB60FB6843F00073FB6067
:101E0400044AFB68536000BF1437BD4680BC70476A
:101E1400001002400000014080B400AF00BFBD4686
:101E240080BC704780B400AFFEE780B400AFFEE72B
:101E340080B400AFFEE780B400AFFEE780B400AF2B
:101E440000BFBD4680BC704780B400AF00BFBD4634
:101E540080BC704780B400AF00BFBD4680BC7047F3
:101E640080B500AF00F03EFA00BF80BD80B500AF82
:101E7400024800F0C9FE00BF80BD00BF6002002020
:101E840080B500AF024802F0F7FA00BF80BD00BF82
:101E94002003002080B586B000AFF860B9607A6096
:101EA40000237B610AE0AFF300800146BB685A1C43
:101EB400BA60CAB21A707B6901337B617A697B6844
:101EC4009A42F0DB7B6818461837BD4680BD80B562
:101ED40086B000AFF860B9607A6000237B6109E0E6
:101EE400BB685A1CBA601B781846FFF7E7FA7B698F
:101EF40001337B617A697B689A42F1DB7B6818461F
:101F04001837BD4680BD80B483B000AF78604FF011
:101F1400FF3318460C37BD4680BC704780B483B08D
:101F240000AF786039603B684FF400525A60002378
:101F340018460C37BD4680BC704780B483B000AFF0
:101F44007860012318460C37BD4680BC704780B4C6
:101F540085B000AFF860B9607A6000231846143782
:101F6400BD4680BC7047000080B584B000AF786087
:101F7400114B1B68002B02D10F4B104A1A600E4BF9
:101F84001B68FB600C4B1A687B6813446A469342D7
:101F940007D903F05DF802460C2313604FF0FF33BA
:101FA40006E0054B1A687B681344034A1360FB6818
:101FB40018461037BD4680BD2C020020D0030020F7
:101FC40080B400AF1A4B1B68194A43F00103136035
:101FD400174B5A681649174B13404B60144B1B6838
:101FE400134A23F0847323F480331360104B1B686B
:101FF4000F4A23F4802313600D4B5B680C4A23F4CF
:10200400FE0353600A4B1B68094A23F0A053136074
:10201400074B4FF47F029A60054B0022DA62064BAD
:102024004FF000629A6000BFBD4680BC704700BF9D
:10203400001002400000FFF000ED00E080B586B023
:1020440000AF07F1080300221A605A609A60DA6050
:102054003B4600221A605A601D4B1E4A1A601C4BF4
:102064004FF461625A601A4B00229A60184B4FF485
:102074007A72DA60164B00221A61154B00229A61BB
:10208400134802F0ABF90346002B01D0FFF788FE9A
:102094004FF48053BB6007F1080319460C4802F063
:1020A400F3FA0346002B01D0FFF77AFE00233B60CE
:1020B40000237B603B461946054802F0C3FC0346F7
:1020C400002B01D0FFF76CFE00BF1837BD4680BD62
:1020D400200300200004004080B584B000AF786085
:1020E4007B681B680D4A934213D10D4BDB690C4A84
:1020F40043F00203D3610A4BDB6903F00203FB6084
:10210400FB68002200211D2001F073F81D2001F05E
:102114008CF800BF1037BD4680BD00BF00040040EE
:102124000010024080B500AF114B124A1A60104BE8
:102134004FF496425A600E4B00229A600C4B0022D8
:10214400DA600B4B00221A61094B0C225A61084BCE
:1021540000229A61064B0022DA61054802F0C8FCAD
:102164000346002B01D0FFF71BFE00BF80BD00BF5C
:10217400600300200038014080B588B000AF78606B
:1021840007F1100300221A605A609A60DA607B68D3
:102194001B681C4A934231D11B4B9B691A4A43F476
:1021A40080439361184B9B6903F48043FB60FB6895
:1021B400154B9B69144A43F004039361124B9B69CA
:1021C40003F00403BB60BB684FF400733B6102235C
:1021D4007B610323FB6107F1100319460B4801F0EF
:1021E4003FFA4FF480633B6100237B610023BB61B2
:1021F40007F110031946054801F032FA00BF2037F1
:10220400BD4680BD00380140001002400008014076
:10221400002103E00A4B5B584350043109480A4B40
:1022240042189A42F6D3094A02E0002342F8043BDA
:10223400074B9A42F9D3FFF7C3FEFEF7F9FE704746
:102244005C71000800000020080200200802002041
:10225400CC030020FEE7000080B500AF084B1B68EC
:10226400074A43F010031360032000F0B7FF002077
:1022740000F008F8FFF79EFD0023184680BD00BF5C
:102284000020024080B582B000AF7860124B1A681B
:10229400124B1B7819464FF47A73B3FBF1F3B2FB7C
:1022A400F3F3184600F0CFFF0346002B01D00123BF
:1022B4000EE07B680F2B0AD8002279684FF0FF30BC
:1022C40000F097FF064A7B681360002300E00123B7
:1022D40018460837BD4680BD2C000020340000207D
:1022E4003000002080B400AF054B1B781A46054B24
:1022F4001B681344034A136000BFBD4680BC70478B
:1023040034000020A003002080B400AF024B1B68FF
:102314001846BD4680BC7047A003002080B584B039
:1023240000AF7860FFF7F0FFB8607B68FB60FB6884
:10233400B3F1FF3F05D0094B1B781A46FB681344E1
:10234400FB6000BFFFF7E0FF0246BB68D31AFA68E0
:102354009A42F7D800BF1037BD4680BD3400002034
:1023640080B584B000AF78607B68002B01D1012375
:10237400EDE07B6893F82030DBB2002B02D1786863
:10238400FEF744F97B681B681A687B681B6822F0B7
:1023940002021A60FFF7B8FFF86012E0FFF7B4FF1B
:1023A4000246FB68D31A0A2B0BD97B685B6A43F499
:1023B40000327B685A627B68052283F8202001235F
:1023C400C5E07B681B685B6803F00203002BE5D162
:1023D4007B681B681A687B681B6842F001021A60FC
:1023E400FFF792FFF86012E0FFF78EFF0246FB68EA
:1023F400D31A0A2B0BD97B685B6A43F400327B68DF
:102404005A627B68052283F8202001239FE07B68C1
:102414001B685B6803F00103002BE5D07B681B7E1F
:10242400012B08D17B681B681A687B681B6842F023
:1024340080021A6007E07B681B681A687B681B6867
:1024440022F080021A607B685B7E012B08D17B68D6
:102454001B681A687B681B6842F040021A6007E038
:102464007B681B681A687B681B6822F040021A604C
:102474007B689B7E012B08D17B681B681A687B688C
:102484001B6842F020021A6007E07B681B681A6828
:102494007B681B6822F020021A607B68DB7E012BBC
:1024A40008D17B681B681A687B681B6822F01002DD
:1024B4001A6007E07B681B681A687B681B6842F037
:1024C40010021A607B681B7F012B08D17B681B6894
:1024D4001A687B681B6842F008021A6007E07B6890
:1024E4001B681A687B681B6822F008021A607B6804
:1024F4005B7F012B08D17B681B681A687B681B68AB
:1025040042F004021A6007E07B681B681A687B6863
:102514001B6822F004021A607B689A687B68DB6897
:102524001A437B681B691A437B685B6942EA0301AF
:102534007B685B685A1E7B681B680A43DA617B68A8
:1025440000225A627B68012283F820200023184667
:102554001037BD4680BD000080B487B000AF7860FE
:1025640039607B681B687B617B6893F82030FB745F
:10257400FB7C012B03D0FB7C022B40F0BE80654B1F
:102584007B617B69D3F8003243F001027B69C3F8B5
:1025940000227B69D3F8003223F47C527B69C3F8B0
:1025A40000227B69D3F800223B685B6A1B021A4352
:1025B4007B69C3F800223B685B6903F01F030122B7
:1025C40002FA03F3FB607B69D3F81C22FB68DB434C
:1025D4001A407B69C3F81C223B68DB69002B23D1BA
:1025E4007B69D3F80C22FB68DB431A407B69C3F890
:1025F4000C223B68DB6819043B685B689BB23A6851
:10260400526919437B69483243F832103B689B682E
:1026140019043B681B689AB23B685B690A43796991
:102624004833DB000B445A603B68DB69012B22D141
:102634007B69D3F80C22FB681A437B69C3F80C222C
:102644003B681B6819043B685B689BB23A68526933
:1026540019437B69483243F832103B689B6819047C
:102664003B68DB689AB23B685B690A437969483323
:10267400DB000B445A603B689B69002B09D17B69E2
:10268400D3F80422FB68DB431A407B69C3F80422B5
:1026940007E07B69D3F80422FB681A437B69C3F81B
:1026A40004223B681B69002B09D17B69D3F81422EF
:1026B400FB68DB431A407B69C3F8142207E07B699B
:1026C400D3F81422FB681A437B69C3F814223B68CD
:1026D4001B6A012B07D17B69D3F81C22FB681A43C0
:1026E4007B69C3F81C227B69D3F8003223F0010212
:1026F4007B69C3F80022002306E07B685B6A43F42D
:1027040080227B685A62012318461C37BD4680BC70
:10271400704700BF0064004080B584B000AF7860AB
:102724007B6893F82030DBB2012B2ED17B68022228
:1027340083F820207B681B681A687B681B6822F07A
:1027440001021A60FFF7E0FDF86012E0FFF7DCFD1C
:102754000246FB68D31A0A2B0BD97B685B6A43F4E5
:1027640000327B685A627B68052283F820200123AB
:1027740012E07B681B685B6803F00103002BE5D162
:102784007B6800225A62002306E07B685B6A43F49C
:1027940000227B685A62012318461037BD4680BD6B
:1027A40080B584B000AF78607B6893F82030DBB2EA
:1027B400022B33D17B681B681A687B681B6842F064
:1027C40001021A60FFF7A0FDF86012E0FFF79CFD1C
:1027D4000246FB68D31A0A2B0BD97B685B6A43F465
:1027E40000327B685A627B68052283F8202001232B
:1027F4001BE07B681B685B6803F00103002BE5D0DA
:102804007B681B681A687B681B6822F002021A60E6
:102814007B68012283F82020002306E07B685B6A42
:1028240043F480127B685A62012318461037BD4670
:1028340080BD80B489B000AFF860B9607A603B6055
:10284400FB6893F82030FB77FB681B689B68BB61CF
:10285400FB7F012B03D0FB7F022B40F0B880BB69C8
:1028640003F08063002B0AD1BB6903F00063002BE3
:1028740005D1BB6903F08053002B00F0A080BB6935
:102884001B0E03F003037B617B69022B07D9FB68F2
:102894005B6A43F40002FB685A6201239EE0012252
:1028A4007B699A403B681A60BB689B68002B0DD11A
:1028B400BB681B685A05BB68DB68F96809681A437A
:1028C4007B6918331B010B441A600FE0BB685B681B
:1028D400DA00BB689B681A43BB68DB68F96809685F
:1028E4001A437B6918331B010B441A60FB6819688F
:1028F400BB681A697B6918331B010B4404331A60E3
:10290400BB681B7D012B11D1FB681A687B691833E6
:102914001B01134404331B68FA68116843F4807282
:102924007B6918331B010B4404331A607B6807333B
:102934001B781A067B6806331B781B041A437B68D2
:1029440005331B781B0213437A680432127810464D
:10295400FA68116843EA00027B691B010B4403F522
:10296400C6731A607B6803331B781A067B680233CC
:102974001B781B041A437B6801331B781B02134327
:102984007A6812781046FA68116843EA00027B6993
:102994001B010B4403F5C4731A60FB681A687B6956
:1029A40018331B0113441B68FA68116843F00102D1
:1029B4007B6918331B010B441A6000230EE0FB688B
:1029C4005B6A43F40012FB685A62012306E0FB6869
:1029D4005B6A43F48022FB685A6201231846243759
:1029E400BD4680BC704780B487B000AFF860B96062
:1029F4007A603B60FB6893F82030FB75FB7D012B0C
:102A040003D0FB7D022B40F0F380BB68002B0ED17A
:102A1400FB681B68DB6803F00303002B16D1FB681B
:102A24005B6A43F40012FB685A620123E7E0FB6827
:102A34001B681B6903F00303002B07D1FB685B6A67
:102A440043F40012FB685A620123D8E0FB681A6859
:102A5400BB681B331B0113441B6803F004027B682F
:102A64009A607B689B68002B0CD1FB681A68BB6872
:102A74001B331B0113441B685B0DC3F30A027B6801
:102A84001A600BE0FB681A68BB681B331B01134414
:102A94001B68DB0823F060427B685A60FB681A6895
:102AA400BB681B331B0113441B6803F002027B68E1
:102AB400DA60FB681A68BB681B331B0113440433D8
:102AC4001B6803F00F027B681A61FB681A68BB6815
:102AD4001B331B01134404331B681B0ADAB27B68E3
:102AE4009A61FB681A68BB681B331B0113440433E7
:102AF4001B681B0C9AB27B685A61FB681A68BB6836
:102B04001B01134403F5DC731B68DAB23B681A70CB
:102B1400FB681A68BB681B01134403F5DC731B686C
:102B24001A0A3B680133D2B21A70FB681A68BB6890
:102B34001B01134403F5DC731B681A0C3B68023356
:102B4400D2B21A70FB681A68BB681B01134403F500
:102B5400DC731B681A0E3B680333D2B21A70FB682D
:102B64001A68BB681B01134403F5DE731A683B68DB
:102B74000433D2B21A70FB681A68BB681B01134491
:102B840003F5DE731B681A0A3B680533D2B21A7068
:102B9400FB681A68BB681B01134403F5DE731B68EA
:102BA4001A0C3B680633D2B21A70FB681A68BB6809
:102BB4001B01134403F5DE731B681A0E3B680733CD
:102BC400D2B21A70BB68002B08D1FB681B68DA68A4
:102BD400FB681B6842F02002DA6007E0FB681B68B0
:102BE4001A69FB681B6842F020021A61002306E0A0
:102BF400FB685B6A43F48022FB685A62012318462F
:102C04001C37BD4680BC704780B58AB000AF786081
:102C140000237B627B681B685B693B627B681B6883
:102C24005B68FB617B681B689B68BB617B681B6896
:102C3400DB687B617B681B681B693B617B681B6885
:102C44009B69FB603B6A03F00103002B7CD0BB69EA
:102C540003F00103002B23D07B681B6801229A60D8
:102C6400BB6903F00203002B03D0786800F07DF900
:102C740016E0BB6903F00403002B04D07B6A43F421
:102C840000637B620CE0BB6903F00803002B04D0F3
:102C94007B6A43F480537B6202E0786800F080F939
:102CA400BB6903F48073002B24D07B681B684FF44A
:102CB40080729A60BB6903F40073002B03D07868B8
:102CC40000F05CF916E0BB6903F48063002B04D0C8
:102CD4007B6A43F400537B620CE0BB6903F400633A
:102CE400002B04D07B6A43F480437B6202E0786863
:102CF40000F05FF9BB6903F48033002B24D07B68B8
:102D04001B684FF480329A60BB6903F40033002BD4
:102D140003D0786800F03BF916E0BB6903F4802324
:102D2400002B04D07B6A43F400437B620CE0BB6954
:102D340003F40023002B04D07B6A43F480337B62CA
:102D440002E0786800F03EF93B6A03F00803002BC8
:102D54000CD07B6903F01003002B07D07B6A43F48B
:102D640000737B627B681B681022DA603B6A03F0A5
:102D74000403002B0BD07B6903F00803002B06D05F
:102D84007B681B680822DA60786800F024F93B6AE3
:102D940003F00203002B09D07B681B68DB6803F097
:102DA4000303002B02D07868FEF794FE3B6A03F01D
:102DB4004003002B0CD03B6903F01003002B07D019
:102DC4007B6A43F480637B627B681B6810221A6110
:102DD4003B6A03F02003002B0BD03B6903F008038C
:102DE400002B06D07B681B6808221A61786800F003
:102DF40004F93B6A03F01003002B09D07B681B68BD
:102E04001B6903F00303002B02D0786800F0ECF890
:102E14003B6A03F40033002B0BD0FB6903F010036F
:102E2400002B06D07B681B6810225A60786800F07B
:102E3400EDF83B6A03F48033002B0BD0FB6903F0FD
:102E44000803002B06D07B681B6808225A60786848
:102E540000F0E5F83B6A03F40043002B75D0FB69EE
:102E640003F00403002B6CD03B6A03F48073002B43
:102E740008D0FB6803F00103002B03D07B6A43F006
:102E840001037B623B6A03F40073002B08D0FB68E8
:102E940003F00203002B03D07B6A43F002037B623E
:102EA4003B6A03F48063002B08D0FB6803F004033F
:102EB400002B03D07B6A43F004037B623B6A03F478
:102EC4000063002B3DD0FB6803F07003002B38D067
:102ED400FB6803F07003302B17D0302B04D8102B71
:102EE40009D0202B0CD024E0502B18D0602B1BD001
:102EF400402B0FD01DE07B6A43F008037B6218E08F
:102F04007B6A43F010037B6213E07B6A43F0200387
:102F14007B620EE07B6A43F040037B6209E07B6ADC
:102F240043F080037B6204E07B6A43F480737B623A
:102F340000BF7B681B689A697B681B6822F070027B
:102F44009A617B681B6804225A607B6A002B08D054
:102F54007B685A6A7B6A1A437B685A62786800F015
:102F640067F800BF2837BD4680BD80B483B000AF8A
:102F7400786000BF0C37BD4680BC704780B483B016
:102F840000AF786000BF0C37BD4680BC704780B48A
:102F940083B000AF786000BF0C37BD4680BC70477B
:102FA40080B483B000AF786000BF0C37BD4680BCEE
:102FB400704780B483B000AF786000BF0C37BD4663
:102FC40080BC704780B483B000AF786000BF0C371A
:102FD400BD4680BC704780B483B000AF786000BF4A
:102FE4000C37BD4680BC704780B483B000AF7860B6
:102FF40000BF0C37BD4680BC704780B483B000AFBF
:10300400786000BF0C37BD4680BC704780B483B085
:1030140000AF786000BF0C37BD4680BC704780B4F9
:1030240083B000AF786000BF0C37BD4680BC7047EA
:1030340080B483B000AF786000BF0C37BD4680BC5D
:103044007047000080B485B000AF78607B6803F0FF
:103054000703FB600C4BDB68BB60BA684FF6FF03E9
:103064001340BB60FB681A02BB68134343F0BF63A1
:1030740043F40033BB60044ABB68D36000BF143719
:10308400BD4680BC704700BF00ED00E080B400AFD7
:10309400044BDB681B0A03F007031846BD4680BCDB
:1030A400704700BF00ED00E080B483B000AF03467A
:1030B400FB7197F90730002B0BDBFB7903F01F0240
:1030C400064997F907305B09012000FA02F241F83A
:1030D400232000BF0C37BD4680BC704700E100E0F0
:1030E40080B483B000AF03463960FB7197F90730B1
:1030F400002B0ADB3B68DAB20C4997F9073012015E
:10310400D2B20B4483F800230AE03B68DAB20849E0
:10311400FB7903F00F03043B1201D2B20B441A767D
:1031240000BF0C37BD4680BC704700BF00E100E023
:1031340000ED00E080B489B000AFF860B9607A6057
:10314400FB6803F00703FB61FB69C3F10703042B6E
:1031540028BF0423BB61FB690433062B02D9FB6936
:10316400033B00E000237B614FF0FF32BB6902FAAE
:1031740003F3DA43BB681A407B699A404FF0FF318E
:103184007B6901FA03F3D9437B680B401343184668
:103194002437BD4680BC704780B582B000AF7860EC
:1031A4007B68013BB3F1807F01D301230FE00A4A1E
:1031B4007B68013B53600F214FF0FF30FFF790FF16
:1031C400054B00229A60044B07221A60002318461C
:1031D4000837BD4680BD00BF10E000E080B582B076
:1031E40000AF78607868FFF72DFF00BF0837BD4651
:1031F40080BD80B586B000AF0346B9607A60FB73CA
:1032040000237B61FFF742FF78617A68B9687869C7
:10321400FFF790FF024697F90F3011461846FFF763
:103224005FFF00BF1837BD4680BD80B582B000AFD8
:103234000346FB7197F907301846FFF735FF00BFC7
:103244000837BD4680BD80B582B000AF786078682D
:10325400FFF7A2FF034618460837BD4680BD0000AD
:10326400F0B587B000AFF860B960C7E90023012367
:10327400FB750023BB7500237B752F4B1B7E012B35
:1032840001D1022354E02C4B01221A764CF2503027
:1032940000F0A8F80346FB75FB7D002B44D1FB68C6
:1032A400012B02D101237B7507E0FB68022B02D1BD
:1032B40002237B7501E004237B750023BB752DE09D
:1032C400BB7D5A00BB6802EB030CBB7D1901D7E937
:1032D4000023C1F12006A1F1200022FA01F403FA2F
:1032E40006F6344323FA00F0044323FA01F5A3B2AB
:1032F4001946604600F05AF84CF2503000F072F86B
:103304000346FB750D4B1B690C4A23F00103136143
:10331400FB7D002B07D1BB7D0133BB75BA7D7B7D63
:103324009A42CDD300E000BF034B00221A76FB7D06
:1033340018461C37BD46F0BDA803002000200240FB
:1033440080B483B000AF0023FB710D4B1B6903F005
:103354008003002B0DD00A4B0A4A5A60084B0A4AD4
:103364005A60074B1B6903F08003002B01D0012333
:10337400FB71FB7918460C37BD4680BC704700BF13
:103384000020024023016745AB89EFCD80B400AF34
:10339400054B1B69044A43F080031361002318465C
:1033A400BD4680BC704700BF0020024080B483B09B
:1033B40000AF78600B467B80084B0022DA61084B33
:1033C4001B69074A43F0010313617B687A881A80FA
:1033D40000BF0C37BD4680BC704700BFA803002067
:1033E4000020024080B584B000AF7860FEF78CFF07
:1033F400F86010E07B68B3F1FF3F0CD07B68002BD2
:1034040007D0FEF781FF0246FB68D31A7A689A4216
:1034140001D2032325E0154BDB6803F00103002BE5
:10342400E8D1124BDB6803F02003002B02D00F4BD2
:103434002022DA600D4BDB6803F01003002B0BD164
:103444000A4BDB6903F00103002B05D1074BDB6852
:1034540003F00403002B03D000F00AF8012300E07A
:10346400002318461037BD4680BD00BF002002402F
:1034740080B483B000AF00237B60234BDB6803F090
:103484001003002B09D0214BDB6943F002031F4AD0
:10349400D3617B6843F010037B601B4BDB6803F054
:1034A4000403002B09D0194BDB6943F00103174ACD
:1034B400D3617B6843F004037B60134BDB6903F047
:1034C4000103002B0BD0114BDB6943F004030F4ABB
:1034D400D3610D4BDB690C4A23F00103D3617B6894
:1034E40040F20112934206D1074BDB69064A23F0EE
:1034F4000103D36102E0044A7B68D36000BF0C3748
:10350400BD4680BC704700BF00200240A8030020D5
:1035140080B584B000AF786039600123FB73002369
:10352400BB602F4B1B7E012B01D1022353E02C4B9C
:1035340001221A767B681B68022B16D14CF250309C
:10354400FFF750FF0346002B41D1012000F04CF857
:103554004CF25030FFF746FF0346FB73214B1B69C7
:10356400204A23F00403136131E04CF25030FFF79A
:1035740039FF0346002B2AD13B684FF0FF321A6013
:103584007B689B68BB6019E0B86800F049F84CF2AE
:103594005030FFF727FF0346FB73124B1B69114A98
:1035A40023F002031361FB7B002B03D03B68BA6852
:1035B4001A600CE0BB6803F50063BB607B68DB68E2
:1035C400DA027B689B681344BA689A42DCD3044BE2
:1035D40000221A76FB7B18461037BD4680BD00BF1B
:1035E400A80300200020024080B483B000AF7860BC
:1035F400094B0022DA61094B1B69084A43F00403B2
:103604001361064B1B69054A43F04003136100BF75
:103614000C37BD4680BC7047A80300200020024040
:1036240080B483B000AF78600B4B0022DA610B4B9F
:103634001B690A4A43F002031361084A7B68536119
:10364400064B1B69054A43F04003136100BF0C3766
:10365400BD4680BC704700BFA80300200020024084
:1036640080B48BB000AF7860396000237B620023A4
:103674003B6227E101227B6A02FA03F3FB613B68A8
:103684001B68FA691340BB61BA69FB699A4240F04E
:1036940016813B685B68122B34D0122B0DD8022B99
:1036A4002BD0022B04D8002B31D0012B1CD048E0A6
:1036B400032B43D0112B1BD043E0894A934226D0DD
:1036C400874A934206D8874A934220D0864A934237
:1036D4001DD036E0854A934219D0854A934216D0CC
:1036E400844A934213D02CE03B68DB683B6228E0B9
:1036F4003B68DB6804333B6223E03B68DB680833E8
:103704003B621EE03B68DB680C333B6219E03B68BC
:103714009B68002B02D104233B6212E03B689B6848
:10372400012B05D108233B627B68FA691A6108E022
:1037340008233B627B68FA695A6102E000233B621A
:1037440000BFBB69FF2B01D87B6801E07B680433B1
:103754007B61BB69FF2B02D87B6A9B0002E07B6A1A
:10376400083B9B003B617B691A680F213B6901FAA6
:1037740003F3DB431A40396A3B6901FA03F31A4342
:103784007B691A603B685B6803F08053002B00F090
:103794009680594B9B69584A43F001039361564BF9
:1037A4009B6903F00103BB60BB68544A7B6A9B08B6
:1037B400023352F82330FB607B6A03F003039B005F
:1037C4000F2202FA03F3DB43FA681340FB607B68C1
:1037D4004B4A934213D07B684A4A93420DD07B688C
:1037E400494A934207D07B68484A934201D1032354
:1037F40006E0042304E0022302E0012300E00023A6
:103804007A6A02F0030292009340FA681343FB6061
:103814003A497B6A9B080233FA6841F823203B68E3
:103824005B6803F48033002B06D0394B1A6838499F
:10383400BB6913430B6006E0354B1A68BB69DB4375
:10384400334913400B603B685B6803F40033002B7F
:1038540006D02F4B5A682E49BB6913434B6006E0D0
:103864002B4B5A68BB69DB43294913404B603B68C7
:103874005B6803F48013002B06D0254B9A68244917
:10388400BB6913438B6006E0214B9A68BB69DB4339
:103894001F4913408B603B685B6803F40013002BE3
:1038A40006D01B4BDA681A49BB691343CB6006E0A8
:1038B400174BDA68BB69DB4315491340CB607B6A5D
:1038C40001337B623B681A687B6A22FA03F3002B9C
:1038D4007FF4D0AE00BF2C37BD4680BC704700BF1C
:1038E400000021100000111000001210000031101F
:1038F40000003210000022100010024000000140BD
:1039040000080140000C0140001001400014014077
:103914000004014080B483B000AF78600B467B8024
:1039240013467B707B78002B03D07A887B681A61FE
:1039340003E07B881A047B681A6100BF0C37BD461C
:1039440080BC704780B483B000AF78600B467B8046
:103954007B68DA687B881340002B03D07A887B6805
:103964005A6102E07A887B681A6100BF0C37BD4651
:1039740080BC704780B586B000AF78607B68002B50
:1039840001D1012304E37B681B6803F00103002BCE
:1039940000F08780924B5B6803F00C03042B0CD07F
:1039A4008F4B5B6803F00C03082B12D18C4B5B68C4
:1039B40003F48033B3F5803F0BD1894B1B6803F4C8
:1039C4000033002B6CD07B689B68002B68D10123EB
:1039D400DEE27B689B68B3F5803F06D1804B1B68B1
:1039E4007F4A43F4803313602EE07B689B68002B8E
:1039F4000CD17B4B1B687A4A23F480331360784BD9
:103A04001B68774A23F4802313601DE07B689B685E
:103A1400B3F5A02F0CD1724B1B68714A43F4802379
:103A240013606F4B1B686E4A43F4803313600BE0E2
:103A34006B4B1B686A4A23F480331360684B1B6822
:103A4400674A23F4802313607B689B68002B13D0A0
:103A5400FEF75AFC386108E0FEF756FC02463B6963
:103A6400D31A642B01D9032392E25D4B1B6803F440
:103A74000033002BF0D014E0FEF746FC386108E078
:103A8400FEF742FC02463B69D31A642B01D9032397
:103A94007EE2534B1B6803F40033002BF0D100E0AB
:103AA40000BF7B681B6803F00203002B63D04C4B00
:103AB4005B6803F00C03002B0BD0494B5B6803F0ED
:103AC4000C03082B1CD1464B5B6803F48033002B9A
:103AD40016D1434B1B6803F00203002B05D07B680F
:103AE4005B69012B01D0012352E23D4B1B6823F09B
:103AF400F8027B689B69DB00394913430B603AE0A9
:103B04007B685B69002B20D0364B01221A60FEF7DC
:103B1400FBFB386108E0FEF7F7FB02463B69D31A6A
:103B2400022B01D9032333E22D4B1B6803F002035C
:103B3400002BF0D02A4B1B6823F0F8027B689B69AA
:103B4400DB00274913430B6015E0264B00221A6063
:103B5400FEF7DAFB386108E0FEF7D6FB02463B6964
:103B6400D31A022B01D9032312E21D4B1B6803F065
:103B74000203002BF0D17B681B6803F00803002BC1
:103B84003AD07B68DB69002B19D0174B01221A60ED
:103B9400FEF7BAFB386108E0FEF7B6FB02463B6964
:103BA400D31A022B01D90323F2E10D4B5B6A03F014
:103BB4000203002BF0D0012000F0F2FB1CE00A4BC2
:103BC40000221A60FEF7A0FB38610FE0FEF79CFBB1
:103BD40002463B69D31A022B08D90323D8E100BF5C
:103BE4000010024000004242800442429B4B5B6A48
:103BF40003F00203002BE9D17B681B6803F0040384
:103C0400002B00F0A6800023FB75944BDB6903F0C6
:103C14008053002B0DD1914BDB69904A43F08053C4
:103C2400D3618E4BDB6903F08053BB60BB68012317
:103C3400FB758B4B1B6803F48073002B18D1884BE6
:103C44001B68874A43F480731360FEF75DFB386199
:103C540008E0FEF759FB02463B69D31A642B01D9ED
:103C6400032395E17E4B1B6803F48073002BF0D093
:103C74007B681B69012B06D1784B1B6A774A43F09A
:103C8400010313622DE07B681B69002B0CD1734B7D
:103C94001B6A724A23F001031362704B1B6A6F4A5A
:103CA40023F0040313621CE07B681B69052B0CD111
:103CB4006A4B1B6A694A43F004031362674B1B6A2D
:103CC400664A43F0010313620BE0644B1B6A634AC8
:103CD40023F001031362614B1B6A604A23F004035F
:103CE40013627B681B69002B15D0FEF70DFB38614E
:103CF4000AE0FEF709FB02463B69D31A41F2883217
:103D0400934201D9032343E1544B1B6A03F002039A
:103D1400002BEED014E0FEF7F7FA38610AE0FEF764
:103D2400F3FA02463B69D31A41F28832934201D92D
:103D340003232DE1494B1B6A03F00203002BEED150
:103D4400FB7D012B05D1454BDB69444A23F08053AD
:103D5400D3617B68DB6A002B00F08C803F4B5B688F
:103D640003F48033B3F5803F0ED13C4B5B6803F022
:103D74000C03082B08D1394BDB6A03F48033B3F509
:103D8400803F01D1012303E17B68DB6A022B4ED122
:103D9400324B1B6803F08053002B09D02F4BDB6A96
:103DA40003F0F0027B685B6B9A4201D00123EFE0E1
:103DB4002C4B00221A60FEF7A7FA386108E0FEF7E0
:103DC400A3FA02463B69D31A642B01D90323DFE02B
:103DD400224B1B6803F00063002BF0D11F4BDB6AFE
:103DE40023F0F0027B685B6B1C491343CB621B4BD3
:103DF400DB6A23F470627B681B6B18491343CB6244
:103E0400184B01221A60FEF77FFA386108E0FEF7CA
:103E14007BFA02463B69D31A642B01D90323B7E02A
:103E24000E4B1B6803F00063002BF0D022E00B4B19
:103E3400DB6A0A4A23F48033D3620A4B00221A60F5
:103E4400FEF762FA38610FE0FEF75EFA02463B695C
:103E5400D31A642B08D903239AE000BF0010024050
:103E640000700040680042424B4B1B6803F0006343
:103E7400002BE9D17B681B6A002B00F08880464B3D
:103E84005B6803F00C03082B68D07B681B6A022B69
:103E94004DD1424B00221A60FEF736FA386108E031
:103EA400FEF732FA02463B69D31A022B01D90323E7
:103EB4006EE0394B1B6803F00073002BF0D17B6874
:103EC4005B6AB3F5803F0FD1334BDA6A7B685B687A
:103ED40031491343CB62304BDB6A23F00F027B681A
:103EE400DB682D491343CB622B4B5B6823F47412BC
:103EF4007B68596A7B689B6A0B43274913434B6071
:103F0400264B01221A60FEF7FFF9386108E0FEF73C
:103F1400FBF902463B69D31A022B01D9032337E08C
:103F24001D4B1B6803F00073002BF0D02FE01B4BDC
:103F340000221A60FEF7E8F9386108E0FEF7E4F9B8
:103F440002463B69D31A022B01D9032320E0124B0A
:103F54001B6803F00073002BF0D118E07B681B6A28
:103F6400012B01D1012313E00B4B5B68FB60FB6861
:103F740003F480327B685B6A9A4206D1FB6803F4DF
:103F840070127B689B6A9A4201D0012300E00023EF
:103F940018461837BD4680BD0010024060004242FA
:103FA40080B584B000AF786039607B68002B01D1A4
:103FB4000123D0E06A4B1B6803F007033A689A4276
:103FC40010D9674B1B6823F0070265493B6813430C
:103FD4000B60634B1B6803F007033A689A4201D0F5
:103FE4000123B8E07B681B6803F00203002B20D098
:103FF4007B681B6803F00403002B05D0594B5B68F6
:10400400584A43F4E06353607B681B6803F0080379
:10401400002B05D0534B5B68524A43F46053536002
:10402400504B5B6823F0F0027B689B684D49134357
:104034004B607B681B6803F00103002B40D07B6856
:104044005B68012B07D1474B1B6803F40033002B3B
:1040540015D101237FE07B685B68022B07D1414BBC
:104064001B6803F00073002B09D1012373E03D4B5F
:104074001B6803F00203002B01D101236BE0394BD1
:104084005B6823F003027B685B68364913434B602B
:10409400FEF73AF9F8600AE0FEF736F90246FB68E3
:1040A400D31A41F28832934201D9032353E02D4BB2
:1040B4005B6803F00C027B685B689B009A42EBD15F
:1040C400274B1B6803F007033A689A4210D2244B2B
:1040D4001B6823F0070222493B6813430B60204B03
:1040E4001B6803F007033A689A4201D0012332E0C7
:1040F4007B681B6803F00403002B08D0194B5B6832
:1041040023F4E0627B68DB68164913434B607B68E9
:104114001B6803F00803002B09D0124B5B6823F4DF
:1041240060527B681B69DB000E4913434B6000F04F
:1041340021F801460B4B5B681B0903F00F030A4A85
:10414400D35C21FA03F3094A1360094B1B68184630
:10415400FEF798F8002318461037BD4680BD00BF0F
:104164000020024000100240746F00082C00002060
:10417400300000202DE9F04391B000AF6A4B07F105
:1041840014040FCB07C42380684B3C1D0FCB84E879
:104194000F0000237B6300233B630023FB630023A6
:1041A400FB620023BB630023BB6200237B62604B82
:1041B4005B687B637B6B03F00C03042B02D0082B3E
:1041C40003D0A7E05B4BBB63A7E07B6B9B0C03F0C6
:1041D4000F0307F14002134413F82C3CFB627B6B82
:1041E40003F48033002B00F08D80514BDB6A03F025
:1041F4000F0307F14002134413F83C3C3B634C4B60
:10420400DB6A03F48033002B6AD0494BDB6A1B0959
:1042140003F00F030133BB62454BDB6A1B0A03F057
:104224000F0302337B627B6A19464FF00002FB6A7C
:104234004FF0000403FB02F501FB04F02844A1FB4A
:10424400035683191E46294632464FF000034FF0A9
:104254000004540144EAD1644B0119462246491B27
:1042640062EB06024FF000034FF00004940144EAAD
:1042740091648B015B1A64EB02044FF000014FF070
:104284000002E20042EA5372D9000B4614465B195D
:1042940044EB06044FF000014FF00002620242EAD0
:1042A400D35259020B4614469846A146BB6A194696
:1042B4004FF000023B6B4FF0000403FB02F501FBDF
:1042C40004F02844A1FB0334021914461A46234679
:1042D40040464946FBF7ACFF03460C46FB6307E048
:1042E400FB6A144A02FB03F23B6BB2FBF3F3FB637E
:1042F40097F821301A46FB6A934208D1FB6B5B089E
:10430400FB6304E0FB6A0C4A02FB03F3FB63FB6BF5
:10431400BB6302E0074BBB6300BFBB6B184644376B
:10432400BD46BDE8F08300BF486F0008586F000821
:104334000010024000127A0000093D0080B400AF72
:10434400024B1B681846BD4680BC70472C000020F9
:1043540080B500AFFFF7F2FF0146054B5B681B0A0F
:1043640003F00703034AD35C21FA03F3184680BD24
:1043740000100240846F000880B500AFFFF7DEFF35
:104384000146054B5B68DB0A03F00703034AD35C71
:1043940021FA03F3184680BD00100240846F000820
:1043A40080B485B000AF78600A4B1B680A4AA2FB50
:1043B40003235B0A7A6802FB03F3FB6000BFFB681C
:1043C4005A1EFA60002BF9D100BF1437BD4680BCD9
:1043D400704700BF2C000020D34D621080B582B01E
:1043E40000AF78607B68002B01D101231DE07B685E
:1043F40093F83D30DBB2002B06D17B68002283F8B2
:104404003C207868FDF768FE7B68022283F83D2033
:104414007B681A687B6804331946104600F010FA6A
:104424007B68012283F83D20002318460837BD46E7
:1044340080BD80B485B000AF78607B681B68DA68A3
:104444007B681B6842F00102DA607B681B689B682A
:1044540003F00703FB60FB68062B07D07B681B682F
:104464001A687B681B6842F001021A600023184630
:104474001437BD4680BC704780B582B000AF786009
:104484007B681B681B6903F00203022B22D17B6843
:104494001B68DB6803F00203022B1BD17B681B68DB
:1044A4006FF002021A617B6801221A777B681B682D
:1044B4009B6903F00303002B03D0786800F0A4F990
:1044C40005E0786800F097F9786800F0A6F97B6851
:1044D40000221A777B681B681B6903F00403042B12
:1044E40022D17B681B68DB6803F00403042B1BD117
:1044F4007B681B686FF004021A617B6802221A77DA
:104504007B681B689B6903F44073002B03D07868B5
:1045140000F07AF905E0786800F06DF9786800F049
:104524007CF97B6800221A777B681B681B6903F09F
:104534000803082B22D17B681B68DB6803F008039F
:10454400082B1BD17B681B686FF008021A617B681B
:1045540004221A777B681B68DB6903F00303002BD2
:1045640003D0786800F050F905E0786800F043F96A
:10457400786800F052F97B6800221A777B681B6820
:104584001B6903F01003102B22D17B681B68DB68C6
:1045940003F01003102B1BD17B681B686FF0100213
:1045A4001A617B6808221A777B681B68DB6903F44D
:1045B4004073002B03D0786800F026F905E0786892
:1045C40000F019F9786800F028F97B6800221A775E
:1045D4007B681B681B6903F00103012B0ED17B6808
:1045E4001B68DB6803F00103012B07D17B681B68A0
:1045F4006FF001021A617868FCF772FF7B681B6830
:104604001B6903F08003802B0ED17B681B68DB6879
:1046140003F08003802B07D17B681B686FF0800256
:104624001A61786800F05BFA7B681B681B6903F009
:104634004003402B0ED17B681B68DB6803F040030A
:10464400402B07D17B681B686FF040021A617868C1
:1046540000F0ECF87B681B681B6903F02003202B37
:104664000ED17B681B68DB6803F02003202B07D185
:104674007B681B686FF020021A61786800F026FAE4
:1046840000BF0837BD4680BD80B584B000AF7860F8
:1046940039607B6893F83C30012B01D10223A6E0FA
:1046A4007B68012283F83C207B68022283F83D204A
:1046B4007B681B689B68FB60FB6823F07703FB60E7
:1046C400FB6823F47F43FB607B681B68FA689A608D
:1046D4003B681B68402B67D0402B0BD8102B73D042
:1046E400102B02D8002B6FD078E0202B6CD0302B0D
:1046F4006AD073E0702B0DD0702B04D8502B33D0BC
:10470400602B41D06AE0B3F5805F66D0B3F5005FFB
:1047140017D063E07B6818683B6899683B685A68FF
:104724003B68DB6800F06FF97B681B689B68FB6083
:10473400FB6843F07703FB607B681B68FA689A6048
:104744004CE07B6818683B6899683B685A683B682A
:10475400DB6800F058F97B681B689A687B681B6803
:1047640042F480429A6039E07B6818683B68596873
:104774003B68DB681A4600F0CFF87B681B68502161
:10478400184600F026F929E07B6818683B685968E8
:104794003B68DB681A4600F0EDF87B681B68602113
:1047A400184600F016F919E07B6818683B685968E8
:1047B4003B68DB681A4600F0AFF87B681B68402151
:1047C400184600F006F909E07B681A683B681B6824
:1047D4001946104600F0FDF800E000BF7B68012296
:1047E40083F83D207B68002283F83C200023184690
:1047F4001037BD4680BD80B483B000AF786000BF81
:104804000C37BD4680BC704780B483B000AF78607D
:1048140000BF0C37BD4680BC704780B483B000AF86
:10482400786000BF0C37BD4680BC704780B483B04D
:1048340000AF786000BF0C37BD4680BC70470000F5
:1048440080B485B000AF786039607B681B68FB601A
:104854007B682D4A93420FD07B68B3F1804F0BD015
:104864007B682A4A934207D07B68294A934203D043
:104874007B68284A934208D1FB6823F07003FB60ED
:104884003B685B68FA681343FB607B681E4A93428B
:104894000FD07B68B3F1804F0BD07B681B4A9342E7
:1048A40007D07B681A4A934203D07B68194A934223
:1048B40008D1FB6823F44073FB603B68DB68FA684B
:1048C4001343FB60FB6823F080023B685B6913437E
:1048D400FB607B68FA681A603B689A687B68DA62F6
:1048E4003B681A687B689A627B68074A934203D1E3
:1048F4003B681A697B681A637B6801225A6100BFAE
:104904001437BD4680BC7047002C014000040040B1
:1049140000080040000C004080B487B000AFF8608D
:10492400B9607A60FB681B6A7B61FB681B6A23F0D1
:104934000102FB681A62FB689B693B613B6923F0D7
:10494400F0033B617B681B013A6913433B617B695C
:1049540023F00A037B617A69BB6813437B61FB68BC
:104964003A699A61FB687A691A6200BF1C37BD46CE
:1049740080BC704780B487B000AFF860B9607A60DB
:10498400FB681B6A23F01002FB681A62FB689B69D0
:104994007B61FB681B6A3B617B6923F470437B6129
:1049A4007B681B037A6913437B613B6923F0A00393
:1049B4003B61BB681B013A6913433B61FB687A693D
:1049C4009A61FB683A691A6200BF1C37BD4680BC15
:1049D400704780B485B000AF786039607B689B68AD
:1049E400FB60FB6823F07003FB603A68FB681343C9
:1049F40043F00703FB607B68FA689A6000BF1437D2
:104A0400BD4680BC704780B487B000AFF860B96021
:104A14007A603B60FB689B687B617B6923F47F431E
:104A24007B613B681A027B681A43BB6813437A694B
:104A340013437B61FB687A699A6000BF1C37BD46EB
:104A440080BC704780B485B000AF786039607B6803
:104A540093F83C30012B01D1022332E07B68012220
:104A640083F83C207B68022283F83D207B681B6826
:104A74005B68FB607B681B689B68BB60FB6823F01A
:104A84007003FB603B681B68FA681343FB60BB68F8
:104A940023F08003BB603B685B68BA681343BB6068
:104AA4007B681B68FA685A607B681B68BA689A60FE
:104AB4007B68012283F83D207B68002283F83C2038
:104AC400002318461437BD4680BC704780B483B0B9
:104AD40000AF786000BF0C37BD4680BC704780B41F
:104AE40083B000AF786000BF0C37BD4680BC704710
:104AF40080B582B000AF78607B68002B01D10123C0
:104B04003FE07B6893F83930DBB2002B06D17B6839
:104B1400002283F838207868FDF72EFB7B68242276
:104B240083F839207B681B68DA687B681B6822F489
:104B34000052DA60786800F0B1F97B681B681A6982
:104B44007B681B6822F490421A617B681B685A696F
:104B54007B681B6822F02A025A617B681B68DA684A
:104B64007B681B6842F40052DA607B680022DA63D7
:104B74007B68202283F839207B68202283F83A203E
:104B8400002318460837BD4680BD80B588B002AF03
:104B9400F860B9603B601346FB8000237B61FB68CF
:104BA40093F83930DBB2202B40F08380BB68002BB4
:104BB40002D0FB88002B01D101237BE0FB6893F832
:104BC4003830012B01D1022374E0FB68012283F801
:104BD4003820FB680022DA63FB68212283F839203D
:104BE400FDF792FB7861FB68FA889A84FB68FA887F
:104BF400DA8442E0FB68DB8C9BB2013B9AB2FB682F
:104C0400DA84FB689B68B3F5805F22D13B6800932C
:104C14007B6900228021F86800F0F6F80346002B37
:104C240001D0032346E0BB683B613B691B881A46FD
:104C3400FB681B68C2F308025A60FB681B69002BFF
:104C440003D1BB680233BB6017E0BB680133BB60B0
:104C540013E03B6800937B6900228021F86800F030
:104C6400D3F80346002B01D0032323E0BB685A1C6E
:104C7400BA601A78FB681B685A60FB68DB8C9BB2CD
:104C8400002BB7D13B6800937B6900224021F86870
:104C940000F0BAF80346002B01D003230AE0FB68B6
:104CA400202283F83920FB68002283F8382000236F
:104CB40000E0022318461837BD4680BD80B588B091
:104CC40002AFF860B9603B601346FB8000237B6150
:104CD400FB6893F83A30DBB2202B40F09080BB683D
:104CE400002B02D0FB88002B01D1012388E0FB6854
:104CF40093F83830012B01D1022381E0FB680122B3
:104D040083F83820FB680022DA63FB68222283F8E8
:104D14003A20FDF7F9FA7861FB68FA889A85FB680E
:104D2400FA88DA855CE0FB68DB8D9BB2013B9AB2C2
:104D3400FB68DA85FB689B68B3F5805F2BD13B6821
:104D440000937B6900222021F86800F05DF8034697
:104D5400002B01D0032353E0BB683B61FB681B6954
:104D6400002B0CD1FB681B685B689BB2C3F3080380
:104D74009AB23B691A80BB680233BB6030E0FB68BF
:104D84001B685B689BB2DBB29AB23B691A80BB6852
:104D94000133BB6024E03B6800937B69002220213F
:104DA400F86800F031F80346002B01D0032327E014
:104DB400FB681B69002B08D1FB681B685968BB683A
:104DC4005A1CBA60CAB21A700AE0FB681B685B68B6
:104DD400DAB2BB68591CB96002F07F02D2B21A7011
:104DE400FB68DB8D9BB2002B9DD1FB68202283F8EE
:104DF4003A20FB68002283F83820002300E00223D5
:104E040018461837BD4680BD80B584B000AFF86041
:104E1400B9603B601346FB712CE0BB69B3F1FF3F03
:104E240028D0BB69002B07D0FDF76EFA02463B6819
:104E3400D31ABA699A421DD2FB681B68DA68FB6808
:104E44001B6822F4D072DA60FB681B685A69FB683D
:104E54001B6822F001025A61FB68202283F8392082
:104E6400FB68202283F83A20FB68002283F838206C
:104E740003230FE0FB681B681A68BB681340BA6819
:104E84009A420CBF01230023DBB21A46FB799A42F3
:104E9400C3D0002318461037BD4680BD80B584B00A
:104EA40000AF78607B681B681B6923F440517B6802
:104EB400DA687B681B680A431A617B689A687B68B6
:104EC4001B691A437B685B691343FB607B681B683F
:104ED400DB6823F4B05323F00C037A681268F96892
:104EE4000B43D3607B681B685B6923F440717B6868
:104EF4009A697B681B680A435A617B681B68524A3B
:104F040093424ED1FFF738FAB860BA6813469B0053
:104F140013449A001A447B685B689B00B2FBF3F36A
:104F24004A4AA2FB03235B091901BA6813469B0092
:104F340013449A001A447B685B689B00B2FBF3F24B
:104F4400424BA3FB02035B09642000FB03F3D31A67
:104F54001B0132333D4AA2FB03235B0903F0F00338
:104F64001944BA6813469B0013449A001A447B6898
:104F74005B689B00B2FBF3F2344BA3FB02035B09B7
:104F8400642000FB03F3D31A1B0132332F4AA2FB24
:104F940003235B0903F00F027B681B680A449A60D1
:104FA4004DE0FFF7D5F9B860BA6813469B00134487
:104FB4009A001A447B685B689B00B2FBF3F3234AB4
:104FC400A2FB03235B091901BA6813469B0013442F
:104FD4009A001A447B685B689B00B2FBF3F21B4B9C
:104FE400A3FB02035B09642000FB03F3D31A1B0138
:104FF4003233164AA2FB03235B0903F0F00319447E
:10500400BA6813469B0013449A001A447B685B6891
:105014009B00B2FBF3F20D4BA3FB02035B0964207C
:1050240000FB03F3D31A1B013233084AA2FB032308
:105034005B0903F00F027B681B680A449A6000BF97
:105044001037BD4680BD00BF003801401F85EB51BD
:10505400014B1868704700BF380000200346024423
:10506400934200D1704703F8011BF9E70FB40A4BD0
:1050740013B51C6824B1A36913B9204600F0B4FA2F
:1050840005AB049AA1682046019300F025FE02B006
:10509400BDE8104004B070473800002070B50E46DB
:1050A400054618B183690BB900F09EFAAB69AC6888
:1050B40013B9284600F098FA234B9C4217D16C6828
:1050C400A3891B071DD52369DBB1013EA36816F82C
:1050D400011F013BA360E9B9002B2EDA22460A2105
:1050E400284600F0AFF8013011D00A2011E0174B28
:1050F4009C4201D1AC68E3E7154B9C4208BFEC68C5
:10510400DEE72146284600F001F90028DDD04FF003
:10511400FF3070BD002B04DAA2699A4206DC0A292A
:1051240004D023685A1C22601970CFE7224628460F
:1051340000F088F80130C9D1E9E70A2023685A1C35
:1051440022601870E5E700BFB06F0008D06F000858
:10515400906F0008024B01461868FFF79FBF00BF1D
:10516400380000200EB44FF4017230B59CB01FAC6F
:1051740054F8045BADF8142002900690FBF750F845
:105184000B4B03900B9300230F9314934FF6FF7371
:1051940007900848ADF816302A46234602A900684D
:1051A400019400F021FC1CB0BDE8304003B070470E
:1051B400DF5100083800002010B50C46B1F90E107C
:1051C40001F080F90028ABBF636DA3891B1823F499
:1051D4008053ACBF6365A38110BD002070472DE9E7
:1051E400F0411F468B890546DB050C46164605D55E
:1051F40002230022B1F90E1000F080FAA38932468E
:1052040023F48053A381B4F90E103B462846BDE82D
:10521400F04100F069B810B50C46B1F90E1000F079
:105224006DFA431CA38915BF606523F4805343F4CE
:105234008053A38118BFA38110BDB1F90E1000F0F3
:10524400D3B80000F8B50E461446054618B1836974
:105254000BB900F0C9F9214B9C422AD16C68A369AF
:10526400A360A3891A072ED5236963B32369206831
:10527400F6B2C01A63693746834204DC21462846E5
:1052840000F048F928BBA3680130013BA360236800
:105294005A1C22601E706369834204D0A389DB0711
:1052A40019D50A2E17D12146284600F033F990B1BA
:1052B4000FE00B4B9C4201D1AC68D0E7094B9C42F8
:1052C40008BFEC68CBE72146284600F01FF8002809
:1052D400CCD04FF0FF373846F8BD00BFB06F0008A0
:1052E400D06F0008906F000838B50546084611468F
:1052F4000022054C22601A46FCF7E9FD431C02D14A
:10530400236803B12B6038BDC8030020324B70B54D
:105314001D6806460C4625B1AB6913B9284600F052
:1053240063F92E4B9C420FD16C68B4F90C309AB2DD
:1053340015072CD4D00611D40922326043F040035F
:10534400A3814FF0FF303EE0254B9C4201D1AC6875
:10535400EBE7244B9C4208BFEC68E6E7510712D503
:10536400616B41B104F14403994202D0304600F02C
:105374003BFA00236363A38923F02403A38100235E
:10538400636023692360A38943F00803A38123692D
:105394004BB9A38903F42073B3F5007F03D02146EE
:1053A400304600F0E1F9A28912F001030CD0002389
:1053B400A36063695B42A361236953B9B4F90C30F8
:1053C40013F08000BAD170BD920758BF6369A3601F
:1053D400F2E70020F7E700BF38000020B06F0008B4
:1053E400D06F0008906F000838B50023054C0546BF
:1053F40008462360FCF787FD431C02D1236803B1F0
:105404002B6038BDC80300208A892DE9F041054688
:1054140010070C4658D44B68002B05DC0B6C002B92
:1054240002DC0020BDE8F081E66A002EF9D00023FA
:1054340012F480522F68216A2B6032D0606DA389E8
:105444005A0705D56368C01A636B0BB1236CC01A85
:1054540000230246E66A216A2846B047431CA38912
:1054640006D129681D2948D8294ACA40D60744D5F7
:10547400002262602269D904226004D5421C01D151
:105484002B6803B96065616B2F600029C9D004F1F2
:105494004403994202D0284600F0A6F90020606334
:1054A400C0E701232846B047411CC8D12B68002B14
:1054B400C5D01D2B01D0162B01D12F60B1E7A389D4
:1054C40043F04003A381ADE70F69002FA9D09307F0
:1054D40018BF00230E6808BF4B69A6EB07080F60CE
:1054E4008B60B8F1000F9CDD43463A46216A28469A
:1054F400A66AB047002806DCA38943F04003A381D1
:105504004FF0FF308EE70744A8EB0008E9E700BF3F
:105514000100402038B50B6905460C46DBB118B1D3
:1055240083690BB900F060F80C4B9C4209D16C689C
:10553400B4F90C307BB121462846BDE83840FFF76A
:1055440063BF074B9C4201D1AC68F1E7054B9C4219
:1055540008BFEC68ECE7002038BD00BFB06F00085E
:10556400D06F0008906F0008002310B50446C0E90E
:105574000033836081814366C281C0E9043383615F
:10558400194608225C30FFF769FD054B246263620B
:10559400044BA362044BE362044B236310BD00BFBE
:1055A400BD510008E35100081B5200083F52000897
:1055B400014900F085B800BF1955000870B5682589
:1055C4004A1E55430E4605F1740100F059F904468C
:1055D40040B10021C0E900160C30A06005F168025A
:1055E400FFF73CFD204670BD836910B5044633BB0C
:1055F400C0E912330365124B124A1B688262984257
:1056040004BF0123836100F01FF86060204600F0AE
:105614001BF8A060204600F017F80022E060042187
:105624006068FFF7A1FF01220921A068FFF79CFF32
:1056340002221221E068FFF797FF0123A36110BD46
:105644008C6F0008B5550008F8B51B4B07461E685B
:10565400B36913B93046FFF7C7FF4836D6E90134BA
:10566400013B03D5336833B13668F7E7B4F90C501E
:105674006DB16834F4E704213846FFF79FFF3060CA
:105684000028F1D10C2304463B602046F8BD0B4BA7
:105694006566C4E90055A560C4E90335C4E9055548
:1056A4000822294604F15C00FFF7D8FCC4E90D5533
:1056B400C4E91255E9E700BF8C6F00080100FFFF41
:1056C4002DE9F84380468946002600F1480414B9C0
:1056D4003046BDE8F883D4E90175013F01D524685B
:1056E400F5E7AB89012B07D9B5F90E30013303D0A7
:1056F40029464046C84706436835EEE738B50546AF
:10570400084611460022054C22601A46FCF71FFC8D
:10571400431C02D1236803B12B6038BDC8030020A9
:1057240070B50E46B1F90E1096B0002914461D4608
:1057340007DA00232B60B3891A0610D44FF4806370
:105744000EE06A4601F062F80028F2DB019A02F4E6
:105754007042A2F500535A425A412A60EEE74023B0
:105764000020236016B070BD8B8973B59D07064673
:105774000C4607D504F147032360236101236361C9
:1057840002B070BD01AB6A46FFF7CAFF0099054637
:10579400304600F075F848B9B4F90C309A05EFD4E6
:1057A40023F0030343F00203A381E3E70D4BB36249
:1057B400A389206043F08003A381009B206163617F
:1057C400019B5BB1B4F90E10304601F031F828B1F9
:1057D400A38923F0030343F00103A381A3891D4399
:1057E400A581CDE7B555000838B50546002943D055
:1057F40051F8043C0C1F002BB8BFE41801F065F805
:105804001E4A1368104633B9636014602846BDE825
:10581400384001F05BB8A3420BD921686218934267
:1058240001BF1A685B685218226063600460EDE788
:1058340013465A680AB1A242FAD919685818A04204
:105844000BD120680144581882421960DED11068D7
:105854005268014419605A60D8E702D90C232B60BE
:10586400D4E7206821188A4201BF116852680918D8
:10587400216062605C60C9E738BD00BF300200206F
:1058840070B5CD1C25F0030508350C2D38BF0C254B
:10589400002D064601DBA94203D90C233360002006
:1058A40070BD01F012F8214A1468214691B9204CC8
:1058B40023681BB9304600F017FE206029463046A5
:1058C40000F012FE431C24D10C233046336000F058
:1058D400FDFFE4E70B685B1B18D40B2B0FD90B609F
:1058E400CC18CD50304600F0F1FF04F10B00231D1D
:1058F40020F00700C31AD3D05A42E250D0E74B68D5
:105904008C4216BF636013600C46EBE70C46496893
:10591400CCE7C41C24F00304A04205D0211A30466D
:1059240000F0E2FD0130CFD02560DBE7300200203B
:105934003402002038B54B1C144603D14FF0FF3518
:10594400284638BD9389CDB223F020039381636B3D
:1059540052688BB1A36B934208DD23685A1E226000
:1059640003F8015C636801336360E9E7214600F0F2
:1059740015FF0028F1D0E1E72169236851B199426C
:1059840008D213F8011CA94204D1013B013223605F
:105994006260D5E7C4E90F3204F14403636303236F
:1059A400A363234603F8465F23600123DCE710B5B5
:1059B4000C46496B69B104F14403994201D0FFF7E5
:1059C40013FF0020236C6063636013B1E36B2360F7
:1059D40010BD23694FF0FF30236000236360A38967
:1059E40043F02003A381F3E72DE9F04F0C46002197
:1059F400064692460A27ADF5237D449145919E497A
:105A04000DF10408A0919D49DFF87492CDF8188136
:105A1400A19100939AF80030002B00F02A8155469A
:105A240000F01AFF15F801BB5844437813F008033B
:105A34001CD06368002B12DD00F00EFF23681A7877
:105A440010444278120701D4AA46E3E7459A013389
:105A54000132459262682360013A6260E9E7A19BE2
:105A64002146304698470028E6D0EDE7BBF1250FE4
:105A740040F08280439341939AF801302A2B03D15A
:105A840010230AF102054193AA4615F8011BA1F15E
:105A94003002092A22D90322794800F0FDFE38B1E8
:105AA400A0EB09030120AA469840419B184341906A
:105AB4009AF800300AF10105672B2BD8652B80F08A
:105AC4009F80472B10D8452B80F09A80002B6CD0F8
